:040000000CEF00F011
:10000800FACF03F0FBCF04F0E9CF05F04CED22F076
:1000180018EF25F0DB0E0101806F000E0101816FE2
:100028001EEF06F0250E01019519D8B406D001017E
:100038009551A5EC2AF01EEF06F0000E0101896F1C
:10004800000E886F000E0101916F000E906F07D0AF
:10005800010190850001D94BDA2B01D00BD0D9C012
:10006800F6FFDAC0F7FF0800F550300AD8B4F0D729
:1000780001D0F5D7D9C0F6FFDAC0F7FF0800F55070
:1000880012EC29F0D8A04DD0000E0101896F000EA6
:10009800886F00D088C111F089C112F0000E146E6B
:1000A8000A0E136E90EC28F011C088F112C089F185
:1000B800D00E0001E76FFF0E0001E86FD9C0F6FF10
:1000C800DAC0F7FF0800F5500001E96FEA6B00019C
:1000D800E7510001E9270001E8510001EA23000186
:1000E800E951010188270001EA5101018923000132
:1000F800D94BDA2BD9C0F6FFDAC0F7FF0800F55064
:1001080012EC29F0D8A00DD0C5D70BD02FEF06F0F0
:100118000101918524D00101908F21D01EEF06F0B6
:100128001ED0D9C0F6FFDAC0F7FF0001D94BDA2B91
:100138000800F5CF95F101019551000AD8B42FEFC9
:1001480006F0640AD8B40BD0020AD8B4E1D70F0A73
:10015800D8B405D0110AD8B4DED71EEF06F0070EC2
:1001680001019115D8B49AD3000E0101836F060ED0
:10017800826F80C1D9FF81C1DAFFDECF92F1DECF75
:1001880093F1DDCF94F1030E01018027000E812346
:10019800010194AF12D092C111F093C112F094C131
:1001A80013F0DCEC28F011C092F112C093F113C0E7
:1001B80094F1030E0101901300D0000E01018B6F22
:1001C800000E8A6F010192510101931101019411EE
:1001D800D8B493D0820E0001E76FFF0E0001E86FDC
:1001E80092C1E9F093C1EAF094C1EBF095C1ECF04B
:1001F800100E06D00001D890EC33EB33EA33E93324
:10020800E82EF8D70001E9510001E72501018A6FBE
:10021800000E0001E82101018B6F01018A07D8A0B7
:100228008B078AC111F08BC112F0000E146E030EF9
:10023800136E90EC28F011C08AF112C08BF18AC1BC
:1002480017F08BC118F0000E1A6E0A0E196EB6EC74
:1002580021F017C08AF118C08BF101018BAF05D0CE
:1002680001018A07D8A08B0700D001018A51000834
:1002780042EC09F043C084F144C085F145C086F1E1
:1002880084C11FF085C120F086C121F092C122F0FF
:1002980093C123F094C124F041EC1BF01FC084F1FA
:1002A80020C085F121C086F184C111F085C112F00A
:1002B80086C113F0000E146E800E156E3F0E166E7A
:1002C80001EC22F0D8B005D001018A07D8A08B072D
:1002D80014D084C111F085C112F086C113F0000E4C
:1002E800146E200E156E410E166E01EC22F0D8A089
:1002F80004D001018A4B8B2B00D0010183BF08D0A9
:10030800010183511EE10D0E0101825DD8B019D0A3
:1003180092C14DF093C14EF094C14FF0010182514A
:10032800A9EC0FF043C050F044C051F045C052F062
:10033800CBEC10F04DC092F14EC093F14FC094F148
:1003480000D001018BBF08D001018B5128E10A0EB2
:1003580001018A5DD8B023D00101925101019311A6
:1003680001019411D8B477D092C12EF093C12FF027
:1003780094C130F024EC1DF02E502F1030103110A5
:10038800D8A469D001018BBF66D001018B5107E168
:10039800020E01018A5DD8B002D05DD000D084C1C0
:1003A80011F085C112F086C113F0700E146E890E1B
:1003B800156E400E166E01EC22F0D8B003D0010184
:1003C800F70E02D00101F80E8A27FF0E8B2300D00A
:1003D80001018A5142EC09F043C084F144C085F11F
:1003E80045C086F117D092C111F093C112F094C1A3
:1003F80013F084C114F085C115F086C116F03FECE6
:100408001AF011C08CF112C08DF113C08EF114C016
:100418008FF117D092C111F093C112F094C113F06B
:1004280084C114F085C115F086C116F0AAEC18F045
:1004380011C08CF112C08DF113C08EF114C08FF170
:1004480000D0000E0101926F000E0101936F000EA3
:100458000101946F34D092C12EF093C12FF094C152
:1004680030F024EC1DF02EC08CF12FC08DF130C07F
:100478008EF131C08FF192C159F093C15AF094C1F5
:100488005BF08CC119F08DC11AF08EC11BF08FC1C1
:100498001CF0ABEC25F019C05CF01AC05DF01BC075
:1004A8005EF041EC27F059C092F15AC093F15BC05D
:1004B80094F1000E01018B6F000E8A6F00D0010EBF
:1004C8000101956F0A0E01019519D8B422D001D007
:1004D80020D001019551040D0E0EF324F66EFE0E88
:1004E800F420F76E0900F55001018C5D0900F55004
:1004F80001018D590900F55001018E590900F55087
:1005080001018F59D8A005D001D003D00101952B46
:10051800D9D795C1E7F00001E86BE7BFE80701010B
:1005280082510001E727010183510001E8230101FD
:100538008A510001E72701018B510001E8230001DE
:10054800E7510101885F0001E8510101895B010160
:10055800825101018311D8B405D001018807D8A0C0
:10056800890700D0030E010190150001E76F000E06
:10057800010191150001E86F0001E7510001E81140
:10058800D8B405D001018807D8A0890700D0010197
:1005980090A531D0030E010190150001E76F000E00
:1005A800010191150001E86F0001E7510001E81110
:1005B800D8B40CD02D0EA5EC2AF008D0300EA5EC3E
:1005C8002AF001018807D8A0890700D0010189BF56
:1005D80077D001018951F2E101018805D8A070D0D6
:1005E800EDD76ED008D0200EA5EC2AF001018807BF
:1005F800D8A0890700D0010189BF07D0010189511E
:10060800F2E101018805D8B0EED7030E010190157B
:100618000001E76F000E010191150001E86F00016C
:10062800E7510001E811D8B44BD02D0EA5EC2AF003
:1006380047D08CC111F08DC112F08EC113F08FC15B
:1006480014F001019551040D0E0EF324F66EFE0E02
:10065800F420F76E0900F5CF15F00900F5CF16F074
:100668000900F5CF17F00A00F5CF18F094EC22F046
:1006780011C084F112C085F113C086F114C087F14E
:1006880084C11EF085C11FF086C120F087C121F00A
:100698000A0E226E000E236E000E246E000E256ECA
:1006A800DBEC23F01EC084F11FC085F120C086F169
:1006B80021C087F101018451300FA5EC2AF000D048
:1006C8000101950701019529D8B40AD0B2D708D0FD
:1006D800300EA5EC2AF001018A07D8A08B0700D0BC
:1006E80001018BBF07D001018B51F2E101018A059D
:1006F800D8B0EED7010183BF0CD00101835105E1C9
:10070800090E0101825DD8A004D0080E0101956F81
:1007180003D082C195F100D0010195510101825F9A
:10072800000E010195BFFF0E0101835B0101955188
:100738000101D8B404D02E0EA5EC2AF000D0010196
:10074800955142EC09F043C07CF144C07DF145C0AD
:100758007EF192C122F093C123F094C124F07CC1B0
:100768001FF07DC120F07EC121F041EC1BF01FC0BD
:100778002EF020C02FF021C030F024EC1DF02EC048
:100788008CF12FC08DF130C08EF131C08FF16ED059
:100798008CC111F08DC112F08EC113F08FC114F00D
:1007A80001019551040D0E0EF324F66EFE0EF42091
:1007B800F76E0900F5CF15F00900F5CF16F009001E
:1007C800F5CF17F00A00F5CF18F094EC22F011C01D
:1007D80084F112C085F113C086F114C087F184C179
:1007E8001EF085C11FF086C120F087C121F00A0ED6
:1007F800226E000E236E000E246E000E256EDBECBA
:1008080023F01EC084F11FC085F120C086F121C0ED
:1008180087F101018451300FA5EC2AF08CC11EF03C
:100828008DC11FF08EC120F08FC121F001019551BB
:10083800040D0E0EF324F66EFE0EF420F76E09007A
:10084800F5CF22F00900F5CF23F00900F5CF24F009
:100858000A00F5CF25F0DBEC23F01EC08CF11FC099
:100868008DF120C08EF121C08FF100D001019507D4
:1008780001019529D8B40AD08BD708D0300EA5EC41
:100888002AF001018207D8A0830700D00101825114
:1008980001018311D8B4CED1F1D7CCD1010190BFD9
:1008A80023D080C1D9FF81C1DAFFDECF8CF1DDCF43
:1008B8008DF10101000E8DBFFF0E8E6F8F6F020E3E
:1008C80001018027000E812301018FAF78D0030E2C
:1008D8000101901301018F1F8E1F8D1F8C6D000E5B
:1008E8008D238E238F236BD080C1D9FF81C1DAFF7E
:1008F800DECFE7F0DDCFE8F0E7C08CF1E8C08DF19E
:1009080001018E6B8F6B020E01018027000E81237F
:1009180056D0010E0101956F0A0E01019519D8B440
:1009280058D001D056D001019551040D0E0EF32474
:10093800F66EFE0EF420F76E0900F55001018C5D8D
:100948000900F55001018D590900F55001018E5932
:100958000900F55001018F59D8A03BD001D039D0FA
:100968000101952BD9D735D0010E0101956F080EDD
:1009780001019519D8B42DD001D02BD00101955182
:10098800040D840EF324F66EFE0EF420F76E0900B3
:10099800F55001018C5D0900F55001018D590900E0
:1009A800F55001018E590900F55001018F59D8A061
:1009B80010D001D00ED00101952BD9D70AD0010152
:1009C8009051800B000AD8B4A4D7800AD8B4CCD7E9
:1009D80000D00101885101018911D8B415D0030E46
:1009E800010190150001E76F000E0101911500014A
:1009F800E86F0001E7510001E811D8B405D0010102
:100A08008807D8A0890700D0800E010195BF7F0E06
:100A18000001E76F010188510101955D01018951CC
:100A2800800A0001E759D8B00BD0010195510101A6
:100A3800885F000E010195BFFF0E0101895B06D09A
:100A4800000E0101896F000E886F00D0010190A58A
:100A580029D0030E010190150001E76F000E010176
:100A680091150001E86F0001E7510001E811D8B4C1
:100A780004D02D0EA5EC2AF000D001018851010107
:100A88008911D8B438D0300EA5EC2AF001018807B6
:100A9800D8A089070101885101018911D8B42BD048
:100AA800F2D729D00101885101018911D8B40FD09A
:100AB800200EA5EC2AF001018807D8A089070101BA
:100AC800885101018911D8B402D0F2D700D0030EA1
:100AD800010190150001E76F000E01019115000159
:100AE800E86F0001E7510001E811D8B404D02D0ED9
:100AF800A5EC2AF000D0010195510101826F836BAA
:100B080082BF83078AD07AD082C1E7F083C1E8F038
:100B18000001D890E737E8370001D890E737E83781
:100B28000E0E0001E725F66EFE0EE821F76E0900AD
:100B3800F5CF15F00900F5CF16F00900F5CF17F03D
:100B48000A00F5CF18F08CC111F08DC112F08EC1DA
:100B580013F08FC114F094EC22F011C01EF012C0F3
:100B68001FF013C020F014C021F00A0E226E000EF0
:100B7800236E000E246E000E256EDBEC23F01E5053
:100B8800300F0101956F44D08CC111F08DC112F066
:100B98008EC113F08FC114F082C1E7F083C1E8F071
:100BA8000001D890E737E8370001D890E737E837F1
:100BB800840E0001E725F66EFE0EE821F76E0900A7
:100BC800F5CF15F00900F5CF16F00900F5CF17F0AD
:100BD8000A00F5CF18F094EC22F011500F0B010128
:100BE8007F6F01017F51010D160EF324F66EFF0E83
:100BF800F420F76E0800F5CF95F10AD00101905165
:100C0800800B000AD8B480D7800AD8B4BDD700D0EA
:100C180001019551A5EC2AF000D001018207D8A066
:100C2800830701018229EAE101018329D8B402D0AE
:100C3800E5D700D0D9C0F6FFDAC0F7FF0001D94BDD
:100C4800DA2B0800F5CF95F101019551D8B403D0FE
:100C580016EF00F000D01200000189AF1ED02D0E53
:100C68000001CF6F7F0E00018915176E186A000EFC
:100C78001A6E0A0E196EB6EC21F01750300F0001EB
:100C8800D06F7F0E000189153D6E3E6A000E406EE2
:100C98000A0E3F6E1EEC23F01BD02B0E0001CF6F07
:100CA80089C017F08AC018F0000E1A6E0A0E196E65
:100CB800B6EC21F01750300F0001D06F89C03DF01D
:100CC8008AC03EF0000E406E0A0E3F6E1EEC23F006
:100CD8003D50300F0001D16F00D000018CAF28D0FB
:100CE8002D0E0001D36F8BC04AF08CC04BF04A1E0A
:100CF8004B1E4A4A4B2A4AC04CF04BC04DF04CC0E0
:100D080017F04DC018F0000E1A6E0A0E196EB6ECE8
:100D180021F01750300F0001D46F4CC03DF04DC08A
:100D28003EF0000E406E0A0E3F6E1EEC23F01BD004
:100D38002B0E0001D36F8BC017F08CC018F0000E7B
:100D48001A6E0A0E196EB6EC21F01750300F00011A
:100D5800D46F8BC03DF08CC03EF0000E406E0A0E82
:100D68003F6E1EEC23F03D50300F0001D56F00D0D0
:100D780069380F0B300F0101686F69500F0B300F86
:100D88000101696F6A380F0B300F01016B6F6A50F0
:100D98000F0B300F01016C6F6C380F0B300F010116
:100DA8006E6F6C500F0B300F01016F6F6B380F0BAC
:100DB800300F0101446F6B500F0B300F0101456F6D
:100DC80068380F0B300F0101476F68500F0B300F59
:100DD8000101486F6F380F0B300F01014A6F6F50D8
:100DE8000F0B300F01014B6F65380F0B300F0101EE
:100DF8003B6F65500F0B300F01013C6F66380F0BCE
:100E0800300F01013E6F66500F0B300F01013F6F2D
:100E180067380F0B300F0101416F67500F0B300F10
:100E28000101426F0001870500018811D8A40BD089
:100E3800C30E116E000E126EE90E136EFF0E146EC5
:100E480034EC28F00BD0C30E116E000E126EED0EAE
:100E5800136EFF0E146E34EC28F000D0B6C017F0F5
:100E6800186A000E1A6E640E196EB6EC21F017504F
:100E7800300F0001B96F000E1A6E0A0E196EB6C057
:100E880017F0186AB6EC21F017C03DF018C03EF014
:100E9800000E406E0A0E3F6E1EEC23F03D50300FE0
:100EA8000001BA6FB6C03DF03E6A000E406E0A0EF1
:100EB8003F6E1EEC23F03D50300F0001BB6F000168
:100EC8009B05D8A40BD0CB0E116E000E126EE90E46
:100ED800136EFF0E146E34EC28F00BD0CB0E116E8F
:100EE800000E126EED0E136EFF0E146E34EC28F029
:100EF80000D080B802D0310E01D0300E0001D76F7B
:100F080000D0ABC017F0186A000E1A6E640E196E86
:100F1800B6EC21F01750300F0001C76F000E1A6EA3
:100F28000A0E196EABC017F0186AB6EC21F017C09C
:100F38003DF018C03EF0000E406E0A0E3F6E1EECEB
:100F480023F03D50300F0001C86FABC03DF03E6A42
:100F5800000E406E0A0E3F6E1EEC23F03D50300F1F
:100F68000001C96F84C02EF085C02FF086C030F014
:100F780024EC1DF02E50300F0101716F000E226E0F
:100F8800200E236E410E246E84C01FF085C020F011
:100F980086C021F041EC1BF01FC02EF020C02FF0BE
:100FA80021C030F024EC1DF02EC03DF02FC03EF0E3
:100FB800000E406E0A0E3F6E1EEC23F03D50300FBF
:100FC8000101736F000E226EC80E236E420E246E4E
:100FD80084C01FF085C020F086C021F041EC1BF0D2
:100FE8001FC02EF020C02FF021C030F024EC1DF0DF
:100FF8002EC03DF02FC03EF0000E406E0A0E3F6E30
:101008001EEC23F03D50300F0101746F030E1A6E71
:10101800E80E196E97C017F098C018F0B6EC21F0DA
:1010280017C03DF018C03EF0000E406E0A0E3F6E2D
:101038001EEC23F03D50300F0001BE6F000E1A6EFB
:10104800640E196E97C017F098C018F0B6EC21F02E
:1010580017C03DF018C03EF0000E406E0A0E3F6EFD
:101068001EEC23F03D50300F0001BF6F000E1A6ECA
:101078000A0E196E97C017F098C018F0B6EC21F058
:1010880017C03DF018C03EF0000E406E0A0E3F6ECD
:101098001EEC23F03D50300F0001C06F97C03DF0AB
:1010A80098C03EF0000E406E0A0E3F6E1EEC23F014
:1010B8003D50300F0001C16F170E396ECF0E3A6EDA
:1010C800000E3B6EFF0E3D6EE00E3C6E000E3F6E56
:1010D800000E3E6E020E406E010E08EC1EF0170E5A
:1010E800396ED30E3A6E000E3B6EFF0E3D6EE00E6B
:1010F8003C6E000E3F6E000E3E6E020E406E460EB7
:1011080008EC1EF0340E396E680E3A6E010E3B6E16
:10111800070E3D6E3C68000E3F6E000E3E6E020EDE
:10112800406E0F0E08EC1EF0520E396E440E3A6EE9
:10113800010E3B6E070E3D6EE00E3C6E000E3F6EDC
:10114800000E3E6E020E406E0F0E08EC1EF06E0E84
:10115800396E3B0E3A6E010E3B6E070E3D6E3C68D3
:10116800000E3F6E000E3E6E010E406E0A0E08EC39
:101178001EF06E0E396EC30E3A6E000E3B6E070EF1
:101188003D6E3C68000E3F6E000E3E6E010E406ED6
:101198005F0E08EC1EF0820E396EB90E3A6E000E24
:1011A8003B6EF80E3D6E000E3C6E000E3F6E000E5C
:1011B8003E6E010E406E230E08EC1EF0820E396E54
:1011C800CB0E3A6E000E3B6EF80E3D6E000E3C6E76
:1011D800000E3F6E000E3E6E010E406E5F0E08EC74
:1011E8001EF0960E396EC70E3A6E000E3B6E070E55
:1011F8003D6EE00E3C6E000E3F6E000E3E6E010E20
:10120800406E0A0E08EC1EF0960E396ED70E3A6E36
:10121800000E3B6E070E3D6EE00E3C6E000E3F6EFC
:10122800000E3E6E010E406E230E08EC1EF0960E68
:10123800396E710E3A6E010E3B6E070E3D6EE00E72
:101248003C6E000E3F6E000E3E6E010E406E320E7A
:1012580008EC1EF0960E396EBE0E3A6E000E3B6E0E
:10126800070E3D6EE00E3C6E000E3F6E000E3E6EA9
:10127800010E406E5D0E08EC1EF01200496E49AE7C
:10128800EFD0496C4950800A120FD8A08DD0000EBB
:10129800146E030E136E000E1A6E0A0E196E000EEF
:1012A800406E640E3F6E49503D6E3E6A3DBE3E063E
:1012B8001EEC23F03DC017F03EC018F0B6EC21F04C
:1012C800090E1724116E000E1820126E90EC28F0EB
:1012D800360E1124F66EFE0E1220F76E0900F5CFB9
:1012E80022F00900F5CF23F00A00F5CF24F0000E14
:1012F8001A6E640E196E4950176E186A17BE1806D2
:10130800B6EC21F0120E1724116E000E1820126E82
:10131800000E146E030E136E90EC28F0360E112496
:10132800F66EFE0E1220F76E0900F5CF1FF00900C9
:10133800F5CF20F00A00F5CF21F041EC1BF01FC0DB
:1013480046F020C047F021C048F046C01FF047C013
:1013580020F048C021F0000E146E030E136E000E2C
:10136800406E0A0E3F6E49503D6E3E6A3DBE3E06D7
:101378001EEC23F03DC011F03EC012F090EC28F0B6
:10138800360E1124F66EFE0E1220F76E0900F5CF08
:1013980022F00900F5CF23F00A00F5CF24F041EC44
:1013A8001BF041D15AD154D04950800A750FD8A0AA
:1013B8004FD0000E1A6E0A0E196E4950176E186A31
:1013C80017BE1806B6EC21F0090E1724116E000E90
:1013D8001820126E000E146E030E136E90EC28F097
:1013E800360E1124F66EFE0E1220F76E0900F5CFA8
:1013F8001FF00900F5CF20F00A00F5CF21F0000E0C
:10140800146E030E136E000E406E0A0E3F6E4950A6
:101418003D6E3E6A3DBE3E061EEC23F03DC011F017
:101428003EC012F090EC28F0360E1124F66EFE0E37
:101438001220F76E0900F5CF22F00900F5CF23F04E
:101448000A00F5CF24F041EC1BF0EDD006D100D016
:101458004950030D360EF324F66EFE0EF2D0FDD081
:101468004950800A120FD8A08DD0000E146E030EBA
:10147800136E000E1A6E0A0E196E000E406E640E80
:101488003F6E49503D6E3E6A3DBE3E061EEC23F05F
:101498003DC017F03EC018F0B6EC21F0090E172435
:1014A800116E000E1820126E90EC28F05D0E1124BB
:1014B800F66EFE0E1220F76E0900F5CF22F0090035
:1014C800F5CF23F00A00F5CF24F0000E1A6E640E53
:1014D800196E4950176E186A17BE1806B6EC21F037
:1014E800120E1724116E000E1820126E000E146EC4
:1014F800030E136E90EC28F05D0E1124F66EFE0EAE
:101508001220F76E0900F5CF1FF00900F5CF20F083
:101518000A00F5CF21F041EC1BF01FC046F020C0B7
:1015280047F021C048F046C01FF047C020F048C02F
:1015380021F0000E146E030E136E000E406E0A0E9C
:101548003F6E49503D6E3E6A3DBE3E061EEC23F09E
:101558003DC011F03EC012F090EC28F05D0E112451
:10156800F66EFE0E1220F76E0900F5CF22F0090084
:10157800F5CF23F00A00F5CF24F041EC1BF053D04F
:101588006CD059D04950800A750FD8A054D0000E9D
:101598001A6E0A0E196E4950176E186A17BE180689
:1015A800B6EC21F0090E1724116E000E1820126EE9
:1015B800000E146E030E136E90EC28F05D0E1124CD
:1015C800F66EFE0E1220F76E0900F5CF1FF0090027
:1015D800F5CF20F00A00F5CF21F0000E146E030EAF
:1015E800136E000E406E0A0E3F6E49503D6E3E6A05
:1015F8003DBE3E061EEC23F03DC011F03EC012F089
:1016080090EC28F05D0E1124F66EFE0E1220F76E97
:101618000900F5CF22F00900F5CF23F00A00F5CF35
:1016280024F041EC1BF01FC043F020C044F021C05F
:1016380045F013D000D04950030D5D0EF324F66E2B
:10164800FE0EF420F76E0900F5CF43F00900F5CF40
:1016580044F00A00F5CF45F000D0120047EC2AF01C
:1016680065EC28F0000E256E000E246EB0EC29F013
:1016780062C011F063C012F0270E136EFF0E146ED5
:1016880034EC28F0010E396E62C03AF063C03BF0CA
:10169800FF0E3D6E3C68000E3F6E000E3E6E010E62
:1016A800406E010E08EC1EF062C011F063C012F02B
:1016B800680E136EFF0E146E34EC28F00B0E396EA4
:1016C80062C03AF063C03BF0F80E3D6E1F0E3C6EF0
:1016D800000E3F6E000E3E6E010E406E180E08ECB6
:1016E8001EF0000E1D6E280E1C6E000E1F6E170ECB
:1016F8001E6E000E216E020E206EFF0E236EE00E8F
:10170800226E64EC13F062C011F063C012F0F50EA3
:10171800136EFF0E146E34EC28F0170E396E62C08B
:101728003AF063C03BF0FF0E3D6EE00E3C6E000EDB
:101738003F6E000E3E6E020E406E2D0E08EC1EF03F
:1017480062C011F063C012F0EF0E136EFF0E146E3C
:1017580034EC28F0000E1D6E6E0E1C6E000E1F6E0F
:10176800170E1E6E000E216E020E206EFF0E236EE7
:10177800E00E226E64EC13F0170E396E62C03AF078
:1017880063C03BF0FF0E3D6EE00E3C6E000E3F6EF8
:10179800000E3E6E020E406E730E08EC1EF062C024
:1017A80011F063C012F0B70E136EFF0E146E34EC16
:1017B80028F0280E396E62C03AF063C03BF0000E84
:1017C8003D6E1F0E3C6E000E3F6E000E3E6E010E0B
:1017D800406E320E08EC1EF062C011F063C012F0C9
:1017E800DF0E136EFF0E146E34EC28F0470E396EC0
:1017F80062C03AF063C03BF0F80E3D6E000E3C6EDE
:10180800000E3F6E000E3E6E010E406E320E08EC6A
:101818001EF062C011F063C012F0B10E136EFF0E1D
:10182800146E34EC28F0640E396E62C03AF063C06E
:101838003BF0FF0E3D6EE00E3C6E000E3F6E000E5C
:101848003E6E010E406E040E08EC1EF062C011F0F0
:1018580063C012F0CF0E136EFF0E146E34EC28F036
:10186800640E396E62C03AF063C03BF0FF0E3D6E05
:10187800E00E3C6E000E3F6E000E3E6E010E406E96
:101888004D0E08EC1EF062C011F063C012F0750E28
:10189800136EFF0E146E34EC28F0780E396E62C0A9
:1018A8003AF063C03BF0000E3D6E1F0E3C6E000E1A
:1018B8003F6E000E3E6E010E406E060E08EC1EF0E6
:1018C80062C011F063C012F0D80E136EFF0E146ED2
:1018D80034EC28F0780E396E62C03AF063C03BF001
:1018E800000E3D6E1F0E3C6E000E3F6E000E3E6EEB
:1018F800010E406E550E08EC1EF062C011F063C078
:1019080012F0F80E136EFF0E146E34EC28F08C0EE5
:10191800396E62C03AF063C03BF0FF0E3D6E3C6822
:10192800000E3F6E000E3E6E010E406E0C0E08EC6F
:101938001EF062C011F063C012F0FB0E136EFF0EB2
:10194800146E34EC28F08C0E396E62C03AF063C025
:101958003BF0FF0E3D6E3C68000E3F6E000E3E6E83
:10196800010E406E210E08EC1EF062C011F063C03B
:1019780012F0E40E136EFF0E146E34EC28F08C0E89
:10198800396E62C03AF063C03BF0FF0E3D6E3C68B2
:10199800000E3F6E000E3E6E010E406E320E08ECD9
:1019A8001EF062C011F063C012F0F10E136EFF0E4C
:1019B800146E34EC28F08C0E396E62C03AF063C0B5
:1019C8003BF0FF0E3D6E3C68000E3F6E000E3E6E13
:1019D800010E406E5F0E08EC1EF01200B3EC24F00E
:1019E80032EC0BF05BEC26F0ADEC26F04BEC24F07F
:1019F8000001B76900D080EC24F0010EC0EC2AF099
:101A08006C500001B719D8B4C1D06CC0B7F063EC02
:101A180027F01FC097F020C098F0E6EC24F03DC0F6
:101A280084F03EC085F03FC086F0FDEC27F014C07E
:101A380089F015C08AF089C011F08AC012F0000E32
:101A4800146E090E136E90EC28F011C017F012C036
:101A580018F0000E1A6E050E196EB6EC21F0200E65
:101A6800172400018B6F000E182000018C6F8BC0AB
:101A780019F08CC01AF0DFEC27F019C059F01AC021
:101A88005AF01BC05BF00001B651B7EC28F019C042
:101A98005CF01AC05DF01BC05EF066EC0EF05950A9
:101AA8000001AB6FA40E0001D96FFE0E0001DA6FC2
:101AB80069C0DBF00001DC6B6AC0DDF00001DE6BA1
:101AC8006CC0DFF00001E06B6BC0E1F00001E26B7D
:101AD80068C0E3F00001E46B6FC0E5F00001E66B5D
:101AE8000EEC00F0EE0E0001D96FFE0E0001DA6F69
:101AF80089C0DBF08AC0DCF08BC0DDF08CC0DEF082
:101B08000EEC00F0D80E0001D96FFE0E0001DA6F5E
:101B180080A804D00001F16BF12B02D00001F16B19
:101B28000001F1510001DB6FDC6B8DC0DDF08EC070
:101B3800DEF00EEC00F0030E0001D96FFF0E00017D
:101B4800DA6F97C0DBF098C0DCF0ABC0DDF00001C5
:101B5800DE6B0EEC00F0820E0001D96FFF0E000163
:101B6800DA6F84C0DBF085C0DCF086C0DDF00EECF7
:101B780000F097C01FF098C020F0D3EC26F0CAEC14
:101B880028F008EC17F030EC06F000D000019505BD
:101B980000019611D8A472D0000E0001966F000EB5
:101BA800956FF288F19C0001AC69000E0001F36F9B
:101BB800000EF26F0001F3BF0AD00001F35121E1DA
:101BC800150E0001F25DD8B01CD001D01AD0260E37
:101BD8000001F225D96E010E0001F321DA6E000131
:101BE800A151DE18D8A408D0F2C0ACF0000E000154
:101BF800F36F150EF26F00D00001F24BF32BDAD71A
:101C080000D00001AC29D8A409D0C20E0001D96FB8
:101C1800FE0E0001DA6F0EEC00F030D082883EEC48
:101C28002AF073EC29F0F6EC2AF0829817D0D8EC59
:101C380029F032EC19F022D0D8EC29F0C4EC1AF0D3
:101C48001DD0D8EC29F0CAEC20F018D0D8EC29F037
:101C580002EC2BF013D0E5EC29F010D00001AC51C8
:101C6800050AD8B4F3D7090AD8B4E1D7010AD8B419
:101C7800E3D7030AD8B4E5D7EED700D000019C0516
:101C8800D8A406D0000E00019C6F02EC2BF000D007
:101C980000019D05D8A4AFD6000E00019D6F00017C
:101CA800875100018811D8A405D0000E0001886F63
:101CB800010E04D0000E0001886F000E876F9BD6BE
:101CC8000CEF00F059C011F05AC012F05BC013F0CD
:101CD800DCEC28F011C04DF012C04EF013C04FF0EC
:101CE8005CC050F05DC051F05EC052F0CBEC10F01B
:101CF8004DC0DEF04EC0DFF04FC0E0F059C011F02B
:101D08005AC012F05BC013F05CC014F05DC015F04F
:101D18005EC016F001EC22F0D8A00AD0000E000137
:101D2800DB6F000E0001DC6F000E0001DD6F00D0DC
:101D380059C011F05AC012F05BC013F05CC014F027
:101D48005DC015F05EC016F001EC22F0D8B0EBD003
:101D5800000E116E480E126E420E136EDEC014F0A5
:101D6800DFC015F0E0C016F001EC22F0D8B00AD0C0
:101D7800000E0001DB6FC80E0001DC6F420E00018F
:101D8800DD6F00D0DEC011F0DFC012F0E0C013F04C
:101D9800000E146E0C0E156E420E166E01EC22F03B
:101DA800D8A024D0DEC011F0DFC012F0E0C013F0DC
:101DB800000E146E480E156E420E166E01EC22F0DF
:101DC800D8B014D0DEC01FF0DFC020F0E0C021F092
:101DD800000E226E000E236E400E246E41EC1BF0A6
:101DE8001FC0DBF020C0DCF021C0DDF0DEC011F048
:101DF800DFC012F0E0C013F0000E146EC80E156EAE
:101E0800410E166E01EC22F0D8A024D0DEC011F0ED
:101E1800DFC012F0E0C013F0000E146E0C0E156E49
:101E2800420E166E01EC22F0D8B014D0DEC01FF0BE
:101E3800DFC020F0E0C021F0000E226EC00E236E3D
:101E48003F0E246E41EC1BF01FC0DBF020C0DCF01D
:101E580021C0DDF0DEC011F0DFC012F0E0C013F0E9
:101E6800000E146E200E156E410E166E01EC22F057
:101E7800D8A024D0DEC011F0DFC012F0E0C013F00B
:101E8800000E146EC80E156E410E166E01EC22F08F
:101E9800D8B014D0DEC01FF0DFC020F0E0C021F0C1
:101EA800000E226EA00E236E3F0E246E41EC1BF036
:101EB8001FC0DBF020C0DCF021C0DDF0000E116E89
:101EC800000E126E000E136EDEC014F0DFC015F0A7
:101ED800E0C016F001EC22F0D8A025D0DEC011F049
:101EE800DFC012F0E0C013F0000E146E200E156E65
:101EF800410E166E01EC22F0D8B015D0DEC01FF0EE
:101F0800DFC020F0E0C021F0000E226E800E236EAC
:101F18003F0E246E41EC1BF01FC0DBF020C0DCF04C
:101F280021C0DDF000D0DBC02EF0DCC02FF0DDC01A
:101F380030F024EC1DF02EC0D9F02FC0DAF0D9C053
:101F480059F0DAC05AF000D012004C6E6D0E4C6495
:101F58009BD0000E146E030E136E000E1A6E0A0E3E
:101F6800196E000E406E640E3F6E4CC03DF03E6A26
:101F78001EEC23F03DC017F03EC018F0B6EC21F07F
:101F8800090E1724116E000E1820126E90EC28F01E
:101F9800360E1124F66EFE0E1220F76E0900F5CFEC
:101FA80022F00900F5CF23F00A00F5CF24F0000E47
:101FB8001A6E640E196E4CC017F0186AB6EC21F050
:101FC800120E1724116E000E1820126E000E146ED9
:101FD800030E136E90EC28F0360E1124F66EFE0EEA
:101FE8001220F76E0900F5CF1FF00900F5CF20F099
:101FF8000A00F5CF21F041EC1BF01FC049F020C0CA
:102008004AF021C04BF0000E146E030E136E000E42
:10201800406E0A0E3F6E4CC03DF03E6A1EEC23F047
:102028003DC011F03EC012F090EC28F0360E11249D
:10203800F66EFE0E1220F76E0900F5CF22F00900A9
:10204800F5CF23F00A00F5CF24F049C01FF04AC0AD
:1020580020F04BC021F041EC1BF01FC046F020C01F
:1020680047F021C048F046C01FF047C020F048C0E4
:1020780021F0000E226E000E236E3F0E246E41ECFE
:102088001BF07DD083D062D00A0E4C645FD0000E66
:10209800146E030E136E000E406E0A0E3F6E4CC097
:1020A8003DF03E6A1EEC23F03DC011F03EC012F038
:1020B80090EC28F0360E1124F66EFE0E1220F76E04
:1020C8000900F5CF22F00900F5CF23F00A00F5CF7B
:1020D80024F0000E1A6E0A0E196E4CC017F0186A1A
:1020E800B6EC21F0090E1724116E000E1820126E9E
:1020F800000E146E030E136E90EC28F0360E1124A9
:10210800F66EFE0E1220F76E0900F5CF1FF00900DB
:10211800F5CF20F00A00F5CF21F041EC1BF01FC0ED
:1021280049F020C04AF021C04BF049C01FF04AC016
:1021380020F04BC021F0000E226E000E236E3F0EE1
:10214800246E41EC1BF01BD021D000D04C50030D65
:10215800360EF324F66EFE0EF420F76E0900F5CF66
:102168001FF00900F5CF20F00A00F5CF21F0000E8E
:10217800226E000E236E3F0E246E41EC1BF01FC032
:1021880043F020C044F021C045F000D012004FC0F9
:1021980053F0546A556A4E34533601E35480535011
:1021A800586E52C053F0546A556A5134533601E39D
:1021B80054805350576E5850D8B40BD05750585C71
:1021C800D8B00ED0585000085724536E180E5364D8
:1021D80007D050C04DF051C04EF052C04FF0B8D0AB
:1021E8005750D8B40BD05850575CD8B00ED0575071
:1021F80000085824536E180E536407D04DC04DF094
:102208004EC04EF04FC04FF0A3D0060E566E4FAEE4
:1022180002D0568E00D052BE568C4E8EFF0E4D16F2
:10222800FF0E4E16000E4F16518EFF0E5016FF0E63
:102238005116000E52165750585CD8B01ED0D89080
:10224800503651365236570658505718D8B40FD012
:10225800560656C053F0070E5316D8B408D0EFD719
:1022680006D0D8904F324E324D32582A00D05750AF
:102278005818D8B424D0F5D722D05850575CD8B0C5
:102288001ED0D8904D364E364F36580658505718EF
:10229800D8B40FD0560656C053F0070E5316D8B40C
:1022A80008D0EFD706D0D890523251325032572A40
:1022B80000D057505818D8B402D0F5D700D056AE31
:1022C8000CD0FF0E4D1AFF0E4E1AFF0E4F1A010EBC
:1022D8004D26000E4E22000E4F2256AC0DD0FF0E9A
:1022E800501AFF0E511AFF0E521A010E5026000EF8
:1022F8005122000E522200D0000E566E4D5050262C
:102308004E5051224F50522252AE0FD0FF0E501A4B
:10231800FF0E511AFF0E521A010E5026000E5122BE
:10232800000E5222010E566E00D050C011F051C05E
:1023380012F052C013F058C014F056C015F050EC0B
:102348001FF011C04DF012C04EF013C04FF000D076
:1023580012002E6E240E306E1E0E2F6EC2D02F501D
:10236800440F236E190E246E020E256E000E276E82
:10237800000E266E3050020DF3500E0FF8EC26F0CA
:10238800440E236E190E246E020E256E000E276E63
:10239800000E266E3050020DF3500E0FF8EC26F0AA
:1023A800440E236E190E246E020E256E070E276E3C
:1023B80026680E0EF8EC26F0A8D0440E236E190EEF
:1023C800246E020E256E000E276E000E266E0E0E6F
:1023D800F8EC26F0440E236E190E246E020E256EBC
:1023E800070E276E266830500E0FF8EC26F08DD0B9
:1023F800440E236E190E246E020E256E000E276EF3
:10240800000E266E30500E0FF8EC26F0440E236EA8
:10241800190E246E020E256E070E276E26683050A0
:10242800020DF3500E0FF8EC26F06FD0440E236E19
:10243800190E246E020E256E000E276E000E266EF3
:102448003050020DF3500E0FF8EC26F02F50440FC9
:10245800236E190E246E020E256E070E276E26684F
:102468000E0EF8EC26F051D02F50440F236E190EA3
:10247800246E020E256E000E276E000E266E0E0EBE
:10248800F8EC26F02F50440F236E190E246E020E1E
:10249800256E070E276E266830500E0FF8EC26F0D2
:1024A80034D02F50440F236E190E246E020E256E61
:1024B800000E276E000E266E30500E0FF8EC26F038
:1024C8002F50440F236E190E246E020E256E070E30
:1024D800276E26683050020DF3500E0FF8EC26F0E8
:1024E80014D02E50000AD8B43AD7010AD8B465D708
:1024F800030AD8B47DD7010AD8B498D7070AD8B444
:10250800B3D7010AD8B4CDD700D012002E6E240E4E
:10251800306E1E0E2F6EBFD0440E236E190E246E21
:10252800020E256E000E276E000E266E30500E0F1E
:10253800F8EC26F0440E236E190E246E020E256E5A
:10254800070E276E26680E0EF8EC26F0B8D0440E5B
:10255800236E190E246E020E256E000E276E000ED5
:10256800266E3050020DF3500E0FF8EC26F0440E94
:10257800236E190E246E020E256E070E276E26682E
:1025880030500E0FF8EC26F09AD0440E236E190E38
:10259800246E020E256E000E276E000E266E0E0E9D
:1025A800F8EC26F02F50440F236E190E246E020EFD
:1025B800256E000E276E000E266E0E0EF8EC26F025
:1025C800440E236E190E246E020E256E070E276E1A
:1025D80026683050020DF3500E0FF8EC26F06FD03D
:1025E8002F50440F236E190E246E020E256E000E16
:1025F800276E000E266E30500E0FF8EC26F02F5086
:10260800440F236E190E246E020E256E070E276ED8
:1026180026680E0EF8EC26F052D02F50440F236E89
:10262800190E246E020E256E000E276E000E266E01
:102638003050020DF3500E0FF8EC26F02F50440FD7
:10264800236E190E246E020E256E070E276E26685D
:1026580030500E0FF8EC26F032D0440E236E190ECF
:10266800246E020E256E000E276E000E266E0E0ECC
:10267800F8EC26F02F50440F236E190E246E020E2C
:10268800256E070E276E26683050020DF3500E0F88
:10269800F8EC26F014D02E50000AD8B43DD7010A21
:1026A800D8B455D7030AD8B470D7010AD8B498D784
:1026B800070AD8B4B2D7010AD8B4CFD700D01200CD
:1026C80020C024F021C025F0241E251E244A252AD6
:1026D800010E24242A6E000E25202B6E000E276E74
:1026E800010E266E20C024F021C025F0D890243693
:1026F8002536241E251E244A252A24C028F025C054
:1027080029F0000E2D6E000E2C6E20C02EF021C078
:102718002FF01E502024186E22C019F023C01AF082
:102728001C504DEC28F0205000081E24186E22C0C2
:1027380019F023C01AF01C504DEC28F01EC018F0F8
:1027480022C019F023C01AF01C5020244DEC28F0A8
:102758001EC018F022C019F023C01AF0205000083B
:102768001C244DEC28F078D02BBE0BD02E06D8A018
:102778002F06020E2826000E292228502A26295024
:102788002B222C4A2D2A020E2626000E27222650FE
:102798002A2627502B221E502E24186E22C019F0EC
:1027A80023C01AF01C502C244DEC28F01E502E2467
:1027B800186E22C019F023C01AF02C5000081C24EF
:1027C8004DEC28F02E5000081E24186E22C019F077
:1027D80023C01AF01C502C244DEC28F02E50000871
:1027E8001E24186E22C019F023C01AF02C500008BD
:1027F8001C244DEC28F01E502C24186E22C019F011
:1028080023C01AF01C502E244DEC28F01E502C2406
:10281800186E22C019F023C01AF02E5000081C248C
:102828004DEC28F02C5000081E24186E22C019F018
:1028380023C01AF01C502E244DEC28F02C50000810
:102848001E24186E22C019F023C01AF02E5000085A
:102858001C244DEC28F000D02E502C5C2D50800A02
:10286800246E2F50800A2458D8A07ED71200F292E6
:102878000001A251D8B4B6D0CE50CFCF01F0026A31
:1028880001C002F0016A0110606E0250616E000E14
:10289800CF6E000ECE6EA6D0000ECF6E000ECE6E9E
:1028A8009E90900ECD6ECD80000E0001A86F000E98
:1028B8000001806F000E816F000E826F000E836F23
:1028C800010E0001A26F8CD09FD0350E605C210EE6
:1028D8006158D8A00AD01C0E605C250E6158D8B08B
:1028E80004D0020E0001A26F29D0F1EC2AF026D004
:1028F80025D08AD0A10E605C0F0E6158D8A008D0F0
:10290800880E605C130E6158D8B002D0030E62D0F6
:10291800F1EC2AF065D064D077D0910E605C010E9E
:102928006158D8A008D0BC0E605C020E6158D8B0BF
:1029380002D0040ED7D7F1EC2AF000D0F19C64D075
:10294800910E605C010E6158D8A047D0080E605CFB
:10295800070E6158D8B041D0D890000180350001E9
:10296800806F000181350001816F0001823500010F
:10297800826F000183350001836FE90E605C030EEE
:102988006158D8A014D0010E000180250001806F85
:10299800000E000181210001816F000E00018221DB
:1029A8000001826F000E000183210001836F000186
:1029B800A8290001A86F1F0E0001A865A7D7000E5F
:1029C8000001966F010E956FF29881C0A1F0000E7C
:1029D80001D09CD70001A26F03D0F1EC2AF000D0FF
:1029E800F18C12D00001A251000AD8B455D7010ABF
:1029F800D8B46BD7030AD8B47DD7010AD8B48DD719
:102A0800070AD8B49DD700D01200B2C017F0186AD0
:102A1800000E1A6E0A0E196EB6EC21F01750300F20
:102A280001015F6FB2C03DF03E6A000E406E0A0EB3
:102A38003F6E1EEC23F03D50300F0101606FB3C0B4
:102A480017F0186A000E1A6E0A0E196EB6EC21F00D
:102A58001750300F0101626FB3C03DF03E6A000E9F
:102A6800406E0A0E3F6E1EEC23F03D50300F010100
:102A7800636FB4C017F0186A000E1A6E0A0E196E4A
:102A8800B6EC21F01750300F0101656FB4C03DF06E
:102A98003E6A000E406E0A0E3F6E1EEC23F03D505B
:102AA800300F0101666F6EC017F0186A000E1A6EBB
:102AB8000A0E196EB6EC21F01750300F0101566F4F
:102AC8006EC03DF03E6A000E406E0A0E3F6E1EEC70
:102AD80023F03D50300F0101576F6DC017F0186A91
:102AE800000E1A6E0A0E196EB6EC21F01750300F50
:102AF8000101596F6DC03DF03E6A000E406E0A0E2E
:102B08003F6E1EEC23F03D50300F01015A6FB5C0E7
:102B180017F0186A000E1A6E0A0E196EB6EC21F03C
:102B28001750300F01015C6FB5C03DF03E6A000ED2
:102B3800406E0A0E3F6E1EEC23F03D50300F01012F
:102B48005D6F340E396E5F0E3A6E010E3B6E070EE6
:102B58003D6E3C68000E3F6E000E3E6E020E406EEB
:102B68000F0E08EC1EF0520E396E560E3A6E010E1C
:102B78003B6E070E3D6EE00E3C6E000E3F6E000E83
:102B88003E6E020E406E0F0E08EC1EF01200366EFE
:102B9800800E3660A6D09F0E2E6401D0A2D034508D
:102BA800D8A403D0010E346E00D01F0E2F6404D0B9
:102BB8007E0E2F6403D000D03F0E2F6E000E386EAD
:102BC800040E386401D08DD0530E2F6015D0E00E5E
:102BD8002F24116E126AFF0E1222000E146E050EBB
:102BE800136E90EC28F038501126000E1222330E86
:102BF8001124F66EFC0E14D0AD0E2F24116E126A3D
:102C0800FF0E1222000E146E050E136E90EC28F0C3
:102C180038501126000E1222320E1124F66EFD0EC7
:102C28001220F76E0800F5CF35F000D0000E376E91
:102C3800060E376401D053D035A023D03404D8A46D
:102C48000CD02E503724186E30C019F031C01AF04D
:102C5800365038244DEC28F03ED037503402F3502B
:102C68002E24236E34C024F034C025F030C026F062
:102C780031C027F038503402F3503624F8EC26F0EF
:102C88002AD03050321804E131503318D8B423D048
:102C98003404D8A40CD02E503724186E32C019F042
:102CA80033C01AF0365038244DEC28F014D0375081
:102CB8003402F3502E24236E34C024F034C025F09F
:102CC80032C026F033C027F038503402F35036248F
:102CD800F8EC26F000D0372AD8903532A9D7382A10
:102CE8006FD7120079D00001B251D8A404D0170EC2
:102CF8000001B26F86D00001B20783D00001B35142
:102D0800D8A404D03B0E0001B36F7BD00001B307F9
:102D180078D00001B451D8A404D03B0E0001B46FA0
:102D280070D00001B4076DD06E04D8A403D00C0E87
:102D38006E6E67D06E0665D0040E6E18D8B40CD0CF
:102D4800060E6E18D8B408D0090E6E18D8B404D080
:102D58000B0E6E18D8A407D06D04D8A430D01E0E60
:102D68002CD02DD04ED06E04D8B418D0030E6E18C7
:102D7800D8B414D0050E6E18D8B410D0070E6E183B
:102D8800D8B40CD0080E6E18D8B408D00A0E6E1835
:102D9800D8B404D00C0E6E18D8A407D06D04D8A4EB
:102DA8000ED01F0E0AD00BD02CD0020E6E18D8A44D
:102DB80028D06D04D8A403D01C0E6D6E22D06D06E9
:102DC80020D00001B551D8A404D01E0E0001B56F63
:102DD80018D00001B50715D00001A651000AD8B4D3
:102DE80082D7010AD8B48AD7030AD8B492D7010A7D
:102DF800D8B49AD7070AD8B49FD7010AD8B4E1D76C
:102E080000D009EC15F0120000018F51000190115B
:102E1800D8A40ED00001870500018811D8A408D0D5
:102E280032EC26F0000E0001906F010E8F6F00D07B
:102E380000018F0500019011D8A413D0000187511B
:102E480000018811D8A40DD05BEC26F08350F80B54
:102E5800836E000E0001906F000E8F6FF6EC2AF063
:102E680000D000018F0500019011D8A45AD00001AC
:102E7800870500018811D8A454D080B808D0000E66
:102E880000018E6F010E8D6F59EC2AF000D0000101
:102E98008D0500018E11D8A444D000019151BAECDF
:102EA8002AF00001914B922B000192BF0ED0000135
:102EB800925105E1080E0001915DD8A006D0000EE0
:102EC8000001926F000E916F00D0E6EC24F03DC037
:102ED80084F03EC085F03FC086F0000E116E400EB3
:102EE800126E400E136E84C014F085C015F086C0B3
:102EF80016F001EC22F0D8B014D0000E00018E6F4D
:102F0800000E8D6F8350F80B836EF6EC2AF00001EB
:102F1800AB516FEC20F0000E0001906F000E8F6F28
:102F280000D0120073D00001B22B180E0001B219A4
:102F3800D8A481D0000E0001B26F7DD00001B32B60
:102F48003C0E0001B319D8A476D0000E0001B36F6F
:102F580072D00001B42B3C0E0001B419D8A46BD078
:102F6800000E0001B46F67D06E2A0D0E6E18D8A43B
:102F780062D0010E6E6E5FD0040E6E18D8B40CD0FD
:102F8800060E6E18D8B408D0090E6E18D8B404D03E
:102F98000B0E6E18D8A408D06D2A1F0E6D18D8A471
:102FA8004AD0010E6D6E47D06E04D8B418D0030E07
:102FB8006E18D8B414D0050E6E18D8B410D0070EF9
:102FC8006E18D8B40CD0080E6E18D8B408D00A0EF3
:102FD8006E18D8B404D00C0E6E18D8A404D06D2A7C
:102FE800200EDCD728D0020E6E18D8A424D06D2A63
:102FF8001C0ED4D720D00001B52B1F0E0001B51927
:10300800D8A419D0000E0001B56F15D00001A65143
:10301800000AD8B488D7010AD8B490D7030AD8B41C
:1030280098D7010AD8B4A0D7070AD8B4A5D7010AF7
:10303800D8B4E1D700D009EC15F01200010E9DECD0
:103048002AF0000E186E960E176E84EC26F0110EFC
:103058009DEC2AF0010E186EF40E176E84EC26F023
:10306800B10E9DEC2AF0010E95EC2AF02C0E95EC91
:103078002AF02D0E95EC2AF0B20E9DEC2AF0010EE6
:1030880095EC2AF02C0E95EC2AF02D0E95EC2AF0F2
:10309800B30E9DEC2AF0010E95EC2AF02C0E95EC5F
:1030A8002AF02D0E95EC2AF0010E95EC2AF02C0E44
:1030B80095EC2AF02D0E95EC2AF0B40E9DEC2AF032
:1030C800070E95EC2AF0C00E9DEC2AF0A20E95ECA6
:1030D8002AF0020E95EC2AF0840E95EC2AF0C10E27
:1030E8009DEC2AF0C50E95EC2AF0C20E9DEC2AF054
:1030F8000A0E95EC2AF0000E95EC2AF0C30E9DEC12
:103108002AF08A0E95EC2AF02A0E95EC2AF0C40EC5
:103118009DEC2AF08A0E95EC2AF0EE0E95EC2AF03A
:10312800C50E9DEC2AF00E0E95EC2AF0200E9DECB3
:103138002AF0360E9DEC2AF0C80E95EC2AF03A0ECD
:103148009DEC2AF0050E95EC2AF0120013C017F03A
:10315800186A196A1234173601E3188017501F6E5F
:103168001F50D8A402D05DD078D016C017F0186AC6
:10317800196A1534173601E3188017501E6E1E5051
:10318800D8A402D04ED069D0128EFF0E1116FF0EB1
:103198001216000E1316158EFF0E1416FF0E1516B6
:1031A800000E1616000E1A6E000E1B6E000E1C6E18
:1031B800000E1D6E7F0E1F5E1E50980F1F5E180EAC
:1031C8001E6ED8901A361B361C361D361450115CEC
:1031D8001550125816501358D8A007D01450115E25
:1031E8001550125A1650135A1A80D89011361236A2
:1031F80013361E2EE6D700D01FAE10D01F50800AFF
:10320800970FD8B003D00DD028D000D0D8901D3259
:103218001C321B321A321F3EF9D717D0170E1F6403
:1032280011D0000E116E000E126E000E136E000EFD
:10323800146E13D007D0D8901A361B361C361D369C
:103248001F0600D01F50D8A4F6D71AC011F01BC013
:1032580012F01CC013F01DC014F01200000E000183
:10326800A66F80EC24F06C507BEC28F00001B46F62
:103278006A507BEC28F00001B36F69507BEC28F0B2
:103288000001B26F68507BEC28F06D6E6B507BECE0
:1032980028F06E6E6F507BEC28F00001B56FB9EC2A
:1032A80019F009EC15F0010E0001A06F59D0B3EC2C
:1032B8001FF0E806D8A454D0030E0001AC19D8B406
:1032C80018D0040E0001AC19D8B413D00001AC51C9
:1032D800D8B40FD0020E0001AC19D8B40AD0060E2B
:1032E8000001AC19D8B405D0070E0001AC19D8A458
:1032F80034D0D8EC29F0030E0001AC19D8A403D0BF
:1033080033EC29F000D0040E0001AC19D8A403D086
:1033180043EC29F000D0020E0001AC19D8A403D068
:1033280020EC2AF000D00001AC51D8A403D085ECE1
:103338002AF000D0060E0001AC19D8A403D076EC10
:1033480016F000D0070E0001AC19D8A403D096ECF3
:1033580017F006D00001AC6903D0E5EC29F000D0E5
:103368000001A005D8B4A3D71200000E256E000EE8
:10337800246EB0EC29F062C011F063C012F0270E81
:10338800136EFF0E146E34EC28F0010E396E62C015
:103398003AF063C03BF0FF0E3D6E3C68000E3F6E96
:1033A800000E3E6E010E406E010E08EC1EF062C06B
:1033B80011F063C012F08F0E136EFF0E146E34EC12
:1033C80028F0100E396E62C03AF063C03BF0F80E78
:1033D8003D6E1F0E3C6E000E3F6E000E3E6E020EDE
:1033E800406E040E08EC1EF062C011F063C012F0CB
:1033F800B70E136EFF0E146E34EC28F0280E396EDB
:1034080062C03AF063C03BF0000E3D6E1F0E3C6E8A
:10341800000E3F6E000E3E6E010E406E320E08EC3E
:103428001EF0440E236E190E246E020E256E070E32
:10343800276E26680E0EF8EC26F062C011F063C005
:1034480012F0DF0E136EFF0E146E34EC28F0470EE8
:10345800396E62C03AF063C03BF0F80E3D6E000E64
:103468003C6E000E3F6E000E3E6E010E406E320E38
:1034780008EC1EF01200133414341C6E1C50D8A42F
:1034880002D061D07CD0163417341B6E1B50D8A4E0
:1034980002D059D074D0138EFF0E1116FF0E1216DB
:1034A800FF0E1316000E1416168EFF0E1416FF0EBE
:1034B8001516FF0E1616000E1716000E176E000EC4
:1034C800186E000E196E000E1A6E7F0E1C5E1B50D1
:1034D800A00F1C5E200E1B6E00D0D8901736183631
:1034E80019361A361450115C1550125816501358C4
:1034F80017501458D8A00AD01450115E1550125AFB
:103508001650135A1750145A178000D0D8901136F5
:103518001236133614361B2EE0D700D01CAE10D04E
:103528001C50800A9F0FD8B003D00DD028D000D0EF
:10353800D8901A321932183217321C3EF9D717D0E0
:103548001F0E1C6411D0000E116E000E126E000EBC
:10355800136E000E146E13D007D0D8901736183695
:1035680019361A361C0600D01C50D8A4F6D717C036
:1035780011F018C012F019C013F01AC014F012009C
:10358800000E0001A46F010E00019E6FADEC26F045
:1035980067507BEC28F0676E66507BEC28F0666E0F
:1035A80065507BEC28F0656E67C0B0F066C0AFF080
:1035B80065C0AEF0E7EC1EF0AFEC1CF059D0B3ECF0
:1035C8001FF0E806D8A454D0030E0001AC19D8B4F3
:1035D80018D0040E0001AC19D8B413D00001AC51B6
:1035E800D8B40FD0020E0001AC19D8B40AD0060E18
:1035F8000001AC19D8B405D0070E0001AC19D8A445
:1036080034D0D8EC29F0030E0001AC19D8A403D0AB
:1036180053EC29F000D0040E0001AC19D8A403D053
:1036280063EC29F000D00001AC51D8A403D08DEC94
:103638002AF000D0020E0001AC19D8A403D0FFEC88
:1036480029F000D0060E0001AC19D8A403D07AECFA
:1036580025F000D0070E0001AC19D8A403D049EC1E
:1036680025F000D00001AC6903D0E5EC29F000D0CA
:1036780000019E05D8B4A3D7120021C025F0266A00
:10368800276A2034253601E326802550286E2850E5
:10369800D8A402D00ED06CD024C025F0266A276AA0
:1036A8002334253601E3268025502D6E2D50D8A4CD
:1036B80007D0000E1F6E000E206E000E216E58D02F
:1036C8002D507B0F282621C02DF024502D1A800E56
:1036D8002D16208E238EFF0E2216FF0E2316000EA7
:1036E8002416000E296E000E2A6E000E2B6E070E91
:1036F8002C6E00D01FA007D02250292623502A2242
:1037080024502B2200D0D890213220321F32D8905A
:103718002236233624362C2EEDD700D0090E2C6EF7
:1037280000D01FA007D02250292623502A22245037
:103738002B2200D0D890213220321F32D8902B3241
:103748002A3229322C2EEDD700D029C011F02AC0F8
:1037580012F02BC013F028C014F02DC015F050EC57
:103768001FF011C01FF012C020F013C021F000D0CC
:103778001200000E256E000E246EB0EC29F062C017
:1037880011F063C012F0270E136EFF0E146E34ECA6
:1037980028F0010E396E62C03AF063C03BF0FF0EAC
:1037A8003D6E3C68000E3F6E000E3E6E010E406E90
:1037B800010E08EC1EF062C011F063C012F0BC0EDE
:1037C800136EFF0E146E34EC28F00E0E396E62C0C4
:1037D8003AF063C03BF0FF0E3D6EE00E3C6E000E0B
:1037E8003F6E000E3E6E020E406E010E08EC1EF09B
:1037F80062C011F063C012F0C60E136EFF0E146E95
:1038080034EC28F0240E396E62C03AF063C03BF005
:10381800FF0E3D6EE00E3C6E000E3F6E000E3E6EDB
:10382800020E406E010E08EC1EF062C011F063C07B
:1038380012F0480E136EFF0E146E34EC28F03C0E96
:10384800396E62C03AF063C03BF0070E3D6E3C68CB
:10385800000E3F6E000E3E6E010E406E0F0E08EC1D
:103868001EF01200E00E9DEC2AF0020E95EC2AF0F4
:103878001C0E95EC2AF0070E95EC2AF0120E95EC2A
:103888002AF0370E95EC2AF0320E95EC2AF0290E24
:1038980095EC2AF02D0E95EC2AF0290E95EC2AF0DD
:1038A800250E95EC2AF02B0E95EC2AF0390E95ECA6
:1038B8002AF0000E95EC2AF0010E95EC2AF0030E82
:1038C80095EC2AF0100E95EC2AF0E10E9DEC2AF00A
:1038D800030E95EC2AF01D0E95EC2AF0070E95ECD8
:1038E8002AF0060E95EC2AF02E0E95EC2AF02C0EF6
:1038F80095EC2AF0290E95EC2AF02D0E95EC2AF07D
:103908002E0E95EC2AF02E0E95EC2AF0370E95EC3B
:103918002AF03F0E95EC2AF0000E95EC2AF0000EE6
:1039280095EC2AF0020E95EC2AF0100E95EC2AF090
:10393800130E9DEC2AF0000E186E0A0E176E84EC1A
:1039480026F0290E9DEC2AF0000E186E640E176EF4
:1039580084EC26F012009B0E0001D96FFF0E0001C7
:10396800DA6FAEC0DBF00001DC6BAFC0DDF0000148
:10397800DE6BB0C0DFF00001E06B0EEC00F0AEC013
:1039880017F0186A000E1A6E0A0E196EB6EC21F0BE
:103998001750300F01014D6FAEC03DF03E6A000E6A
:1039A800406E0A0E3F6E1EEC23F03D50300F0101B1
:1039B8004E6FAFC017F0186A000E1A6E0A0E196E15
:1039C800B6EC21F01750300F0101506FAFC03DF039
:1039D8003E6A000E406E0A0E3F6E1EEC23F03D500C
:1039E800300F0101516FB0C017F0186A000E1A6E3F
:1039F8000A0E196EB6EC21F01750300F0101536F03
:103A0800B0C03DF03E6A000E406E0A0E3F6E1EECDE
:103A180023F03D50300F0101546F340E396E4D0EB6
:103A28003A6E010E3B6E070E3D6E3C68000E3F6E0F
:103A3800000E3E6E020E406E0F0E08EC1EF01200D5
:103A480030C032F0336A346A2F34323601E33380BF
:103A580032503C6E3C50D8A402D039D063D0170EF7
:103A6800326E2EC033F02FC034F030C035F032281B
:103A7800366E04D0D890353234323332362EFAD7F7
:103A88003350376E2F8EFF0E2E16FF0E2F16000E98
:103A980030162E50386E2F50396E30503A6E3B6AC1
:103AA8008E0E3C5E3CAE10D03C50800A8F0FD8B0D2
:103AB80003D00DD037D000D0D8903B323A323932CB
:103AC80038323C3EF9D719D0170E3C6411D0000E9D
:103AD8002E6E000E2F6E000E306E000E316E22D04C
:103AE80007D0D890383639363A363B363C0600D0BF
:103AF8003C50D8B402D0F5D700D03750D8B409D04C
:103B08003B1E3A1E391E386C000E39223A223B22DF
:103B180000D038C02EF039C02FF03AC030F03BC08A
:103B280031F000D0120030C034F0356A366A2F34D4
:103B3800343601E3358034503B6E3B50D8A402D074
:103B48000ED061D033C034F0356A366A3234343638
:103B580001E3358034503C6E3C50D8A407D0000EA9
:103B68002E6E000E2F6E000E306E4DD0000E386E89
:103B7800000E396E000E3A6E3C50890F3B5E30C025
:103B88003CF033503C1A800E3C162F8EFF0E2E163A
:103B9800FF0E2F16000E3016328EFF0E3116FF0E56
:103BA8003216000E3316180E376E00D0D8903836FD
:103BB80039363A3631502E5C32502F5833503058FF
:103BC800D8A007D031502E5E32502F5A3350305A79
:103BD8003880D8902E362F363036372EE7D700D09B
:103BE80038C011F039C012F03AC013F03BC014F0DD
:103BF8003CC015F050EC1FF011C02EF012C02FF091
:103C080013C030F000D01200436E43C049F039C0F1
:103C180048F03AC011F03BC012F0A1EC27F011C0F7
:103C280044F012C045F0000E476E000E466E56D0A6
:103C38000001B8510001D8B42CD04050050D4950AE
:103C4800416E426AF3504126F450422242BE21D0CE
:103C5800425004E1810E415CD8A01BD0000E496E91
:103C68004050070DF3504824030F486EA00E4864D7
:103C780003D0A00E486E00D046503A24D96E475063
:103C88003B20DA6E200EDE18D8B425D002D023D01F
:103C980000D048C02EF046503A24D96E47503B20F9
:103CA800DA6EDF502F6E3CC030F03DC031F03EC0C0
:103CB80032F03FC033F040C034F04950CBEC15F03F
:103CC8004050060DF3504924496E800E496403D0D4
:103CD800800E496E00D0464A472A00D04450465CC0
:103CE80045504758D8A0A4D71200236E800E2360F1
:103CF80069D09F0E186401D065D0FF0E1D6EFF0EAF
:103D08001E6E195023C01FF0206A1F26000E2022A5
:103D18001D501F261E50202220BE0AD0205004E12C
:103D2800800E1F5CD8A004D023500008800F196EA5
:103D3800FF0E1D6EFF0E1E6E1A5018C01FF0206A6F
:103D48001F26000E20221D501F261E50202220BE96
:103D58000BD0205004E1A00E1F5CD8A005D018504D
:103D68000008A00F1A6E00D018C014F023501924B0
:103D78001D6E1D04156E18501A241E6E1E04166E34
:103D8800235007EC26F01C50216E1BC022F08388BC
:103D9800839A1AC018F01850D8B413D001D011D093
:103DA80019C023F02350D8B40AD001D008D021502C
:103DB8002AEC2AF022502AEC2AF02306F3D7180618
:103DC800EAD7838A1200000E256E000E246EB0EC2E
:103DD80029F062C011F063C012F0580E136EFF0E86
:103DE800146E34EC28F0010E396E62C03AF063C0EC
:103DF8003BF0FF0E3D6E3C68000E3F6E000E3E6EBF
:103E0800010E406E010E08EC1EF062C011F063C096
:103E180012F0A60E136EFF0E146E34EC28F0150E79
:103E2800396E62C03AF063C03BF0F80E3D6E1F0E6B
:103E38003C6E000E3F6E000E3E6E020E406E060E89
:103E480008EC1EF062C011F063C012F0B70E136EDA
:103E5800FF0E146E34EC28F0280E396E62C03AF06A
:103E680063C03BF0000E3D6E1F0E3C6E000E3F6EB1
:103E7800000E3E6E010E406E320E08EC1EF0440E2F
:103E8800236E190E246E020E256E070E276E266805
:103E98000E0EF8EC26F012001450D8B405D01150CC
:103EA80012101310D8A40ED0000E116E000E126E50
:103EB800000E136E53D006D0142AD8901332123243
:103EC800113200D0000E1114166E000E1214176E67
:103ED800FE0E1314186E165017101810D8B40ED002
:103EE800EBD70CD0142A010E1126000E1222000E58
:103EF8001322D89013321232113200D0000E11144E
:103F0800166E000E1214176EFF0E1314186E16504C
:103F180017101810D8B408D0E5D706D01406D890D2
:103F280011361236133600D012BE04D0020E1460B9
:103F3800F5D700D014B002D0129E00D0D890143219
:103F4800145013121550D8B402D0138E00D011C0DB
:103F580011F012C012F013C013F000D012000001CB
:103F6800950500019611D8A459D0000E0001966F4E
:103F7800000E956F380E0001D96FFF0E0001DA6F41
:103F8800A1C0DBF00001DC6B0EEC00F0F288F19CC4
:103F98000001AC69000E0001EE6F000EED6F00012C
:103FA800EEBF0AD00001EE5121E1150E0001ED5DD2
:103FB800D8B01CD001D01AD0260E0001ED25D96E3C
:103FC800010E0001EE21DA6E0001A151DE18D8A41D
:103FD80008D0EDC0ACF0000E0001EE6F150EED6FCD
:103FE80000D00001ED4BEE2BDAD700D00001AC2950
:103FF800D8A40AD0C20E0001D96FFE0E0001DA6FF4
:104008000EEC00F0000E0AD082883EEC2AF073EC29
:1040180029F0F6EC2AF08298010E00D01200680E02
:104028001A6E070E176E0E0E186E18C014F01A507E
:104038001BEC28F0196E1950010B196E195025093F
:10404800196E18C013F019C014F01A5023EC29F097
:104058006BEC2AF01A501A24C0EC27F01750C0EC69
:1040680027F00BEC2AF0D8801A34C0EC27F0010EA8
:104078001DEC27F0676E010E1DEC27F0666E010E31
:104088001DEC27F0656E000E1DEC27F0646E67507E
:104098007F0B676E66507F0B666E65507F0B656E93
:1040A80064508009646E6BEC2AF01A501A24C0EC34
:1040B80027F01750C0EC27F06750C0EC27F0665087
:1040C800C0EC27F06550C0EC27F06450C0EC27F036
:1040D80062EC2AF01200436E040ECB6E070ECA6E15
:1040E800000E226E800E236E400E246E4350B7ECF5
:1040F80028F019C01FF01AC020F01BC021F041ECB5
:104108001BF01FC02EF020C02FF021C030F0000E91
:10411800316EA00E326E410E336E97EC1DF02EC03C
:1041280040F02FC041F030C042F040C02EF041C0F6
:104138002FF042C030F024EC1DF02EC044F02FC008
:1041480045F043503D6E3E6A44503D5C3E50800A07
:104158003F6E4550800A3F58D8B003D0444A452A9C
:1041680000D044C03DF0030E3D163D38F00B0C095D
:10417800BD6E44C03DF045C03EF03E343E323D3257
:104188003E343E323D323D50BE6E1200010E0001FB
:104198009F6FB6C0B1F0BDEC1BF020EC21F047D00A
:1041A800010E0001EF6F000E0001F06FB3EC1FF07D
:1041B8000001EF19F011D8A43AD00001AC51D8B4DD
:1041C8000FD0020E0001AC19D8B40AD0060E0001B7
:1041D800AC19D8B405D0070E0001AC19D8A424D066
:1041E800D8EC29F00001AC51D8A403D07DEC2AF01A
:1041F80000D0020E0001AC19D8A403D016EC2AF0A6
:1042080000D0060E0001AC19D8A403D0CBEC29F0DD
:1042180000D0070E0001AC19D8A403D0BEEC29F0D9
:1042280000D00001AC6903D0E5EC29F000D0000112
:104238009F05D8B4B5D71200B1C017F0186A000EA0
:104248001A6E640E196EB6EC21F017504A6E000E05
:104258001A6E0A0E196EB1C017F0186AB6EC21F082
:1042680017C03DF018C03EF0000E406E0A0E3F6EBB
:104278001EEC23F03D504B6EB1C03DF03E6A000E7F
:10428800406E0A0E3F6E1EEC23F03D504C6E4A50B5
:10429800300F0101776F4B50300F0101786F4C5090
:1042A800300F0101796F4A0E396E770E3A6E010EA2
:1042B8003B6EF80E3D6E000E3C6E000E3F6E000E1B
:1042C8003E6E020E406E280E08EC1EF01200680EBC
:1042D8004A6E000E4B6E0001B451DBEC25F04350E2
:1042E8006C6E0001B351DBEC25F043506A6E00019F
:1042F800B251DBEC25F04350696E010E0001AA6F44
:104308006D50DBEC25F04350686E6E50DBEC25F009
:1043180043506B6E0001B551DBEC25F043506F6ED6
:104328006BEC2AF04A504A24C0EC27F04B50C0EC02
:1043380027F06C50C0EC27F06A50C0EC27F06950A9
:10434800C0EC27F00001AA51C0EC27F06850C0EC7F
:1043580027F06B50C0EC27F06F50C0EC27F062ECF0
:104368002AF01200000E1C6E1AAE07D0196C1A1E25
:10437800D8B01A2A010E1C6E00D018AE07D0176CE0
:10438800181ED8B0182A010E1C1A00D0000E1E6E76
:10439800000E1D6E19501A10D8B421D0010E1B6ED4
:1043A80005D0D89019361A361B2A00D01ABE02D06A
:1043B800F8D700D0D8901D361E361950175C1A5001
:1043C8001858D8A006D01950175E1A50185A1D80D0
:1043D80000D0D8901A3219321B2EECD700D01C50BE
:1043E800D8B405D01D6C1E1ED8B01E2A00D01DC022
:1043F80017F01EC018F000D0120013AE17D011C06D
:1044080017F012C018F013C019F0171E181E191E45
:10441800172A000E18221922000E1724116E000EFA
:104428001820126E800E1920136E00D016AE17D009
:1044380014C017F015C018F016C019F0171E181E72
:10444800191E172A000E18221922000E1724146E9E
:10445800000E1820156E800E1920166E00D0000E62
:10446800111A000E121A800E131A000E141A000EDA
:10447800151A800E161A1450115C15501258165041
:104488001358D8B002D0D89002D0D88000D01200EB
:104498000600EACF06F0E1CF07F0E2CF08F0D9CF67
:1044A80009F0DACF0AF0F3CF0BF0F4CF0CF0F6CF27
:1044B8000DF0F7CF0EF0F8CF0FF0F5CF10F09EA06B
:1044C80003D0B3EC2AF000D0F2A203D03BEC14F0F6
:1044D80000D0F0A003D0ECEC2AF000D0F0A203D07A
:1044E800E7EC2AF000D010C0F5FF0FC0F8FF0EC0AF
:1044F800F7FF0DC0F6FF0CC0F4FF0BC0F3FF0AC0B6
:10450800DAFF09C0D9FF08C0E2FF07C0E1FF06C013
:10451800EAFF05C0E9FF04C0FBFF03C0FAFF110072
:10452800000E196E000E1A6E000E1B6E000E1C6E29
:104538001550161017101810D8B42FD0010E1D6E74
:1045480007D0D89015361636173618361D2A00D0DB
:1045580018BE02D0F6D700D0D89019361A361B36B6
:104568001C361550115C1650125817501358185015
:104578001458D8A00AD01550115E1650125A175068
:10458800135A1850145A198000D0D890183217327C
:10459800163215321D2EE0D700D019C011F01AC0FE
:1045A80012F01BC013F01CC014F01200226E800E13
:1045B80022603FD09F0E186401D03BD0FF0E1C6EC6
:1045C800FF0E1D6E195018C01EF01F6A1E26000E21
:1045D8001F221C501E261D501F221FBE0BD01F500D
:1045E80004E1A00E1E5CD8A005D018500008A00F4A
:1045F800196E00D01B50206E1AC021F018C014F09C
:1046080022C015F0185019241C6E1C04166E225076
:1046180007EC26F08388839A07D020502AEC2AF0EA
:1046280021502AEC2AF000D019061928D8A4F5D769
:10463800838A1200000E426E3EAE07D03D6C3E1ECD
:10464800D8B03E2A010E426E00D040AE05D03F6C75
:10465800401ED8B0402A00D03F504010D8B41DD0DA
:10466800010E416E05D0D8903F364036412A00D021
:1046780040BE02D0F8D700D03F503D5C40503E5875
:10468800D8A005D03F503D5E40503E5A00D0D8904B
:1046980040323F32412EF0D700D04250D8B405D036
:1046A8003D6C3E1ED8B03E2A00D03DC03DF03EC015
:1046B8003EF000D0120020454345333330314C20C2
:1046C800462732332046696E616C2053340000005F
:1046D800000000000000000000000000A262E222CA
:1046E80002C2E0A8906898B030187A10385A424A46
:1046F8005230303A30303A30300030302F30302FAE
:1047080030300030303A30303A30300030302F30EE
:10471800302F30300030303A30303A3030003030DE
:104728003A30303A303000302E303056003037359D
:10473800460080EC24F068C064F0680E4A6E070EEC
:104748004B6E0001AE51DBEC25F04350656E000165
:10475800AF51DBEC25F04350666E0001B051DBEC45
:1047680025F04350676E67507F0B676E66507F0B6E
:10477800666E65507F0B656E64508009646E6BECE5
:104788002AF04A504A24C0EC27F04B50C0EC27F0DE
:104798006750C0EC27F06650C0EC27F06550C0ECBD
:1047A80027F06450C0EC27F062EC2AF01200225087
:1047B800231024102510D8B429D0010E266E07D056
:1047C800D8902236233624362536262A00D025BE10
:1047D80002D0F6D700D022501E5C23501F58245018
:1047E800205825502158D8A009D022501E5E2350A9
:1047F8001F5A2450205A2550215A00D0D8902532CB
:10480800243223322232262EE6D700D01EC01EF0D4
:104818001FC01FF020C020F021C021F01200136E2D
:10482800000EAC6E000EAB6E13A002D0AC8800D0A8
:1048380013A203D0AC8CAB8C00D013A402D0AC8EE6
:1048480000D013A602D0AB8802D0AB8A00D013B830
:10485800AC849E9813AA02D0AB8600D013AC02D0C9
:104868009D8A01D09D9A9E9A13AE02D09D8801D050
:104878009D9811C0AFFF1250B06EAC8AAB8E949C5D
:10488800948EACB8ACBE02D0948C00D01200680EE6
:10489800136E000E146E000E6C6E010E6A6E130E0F
:1048A800696E010E0001AA6F300E686E110E6B6EF4
:1048B800230E6F6E6BEC2AF013501324C0EC27F014
:1048C8001450C0EC27F06C50C0EC27F06A50C0ECD4
:1048D80027F06950C0EC27F00001AA51C0EC27F07E
:1048E8006850C0EC27F06B50C0EC27F06F50C0EC5C
:1048F80027F062EC2AF01200680E156E000E146E96
:104908006BEC2AF015501524C0EC27F01450C0ECBD
:1049180027F00BEC2AF0D8801534C0EC27F0010EF4
:104928001DEC27F06C6E010E1DEC27F06A6E010E6F
:104938001DEC27F0696E010E1DEC27F00001AA6F2F
:10494800010E1DEC27F0686E010E1DEC27F06B6E52
:10495800000E1DEC27F06F6E62EC2AF0120034ECAA
:104968002AF0ACEC2AF0700ED36E0D0EC16E130E49
:10497800926E070E936E010E946E000E956E000EE9
:10498800966E000E846E000E00019B6FF19E000E65
:10499800B26E030EB16EA00E116E860E126E010E6F
:1049A800136E000E146ED8EC2AF093EC29F0EEEC9E
:1049B80028F0CCEC2AF04B0E0001B66F839083925E
:1049C80083941200A4EC28F011C043F012C044F004
:1049D80043C011F044C012F0000E146E050E136EA1
:1049E80090EC28F011C019F012C01AF0DFEC27F093
:1049F80019C02EF01AC02FF01BC030F0000E316E17
:104A0800800E326E440E336E97EC1DF02EC040F0CF
:104A18002FC041F030C042F040C03DF041C03EF0F0
:104A280042C03FF000D0120000EE80F0360EEE6A71
:104A3800E806FDE100EE60F0100EEE6AE806FDE122
:104A4800BE0EF66E460EF76E000EF86E01EE00F022
:104A580010EE7CF00900F5CFEEFFE550E150FAE1E9
:104A6800000EF66E520EF76E000EF86E00EEB6F0FF
:104A780010EE23F00900F5CFEEFFE550E150FAE122
:104A8800000EF86E0001F2EF0CF021D00001AE2B01
:104A9800180E0001AE19D8A426D0000E0001AE6F82
:104AA80022D00001AF2B3C0E0001AF19D8A41BD0B7
:104AB800000E0001AF6F17D00001B02B3C0E0001B3
:104AC800B019D8A410D0000E0001B06F0CD00001AE
:104AD800A451000AD8B4DAD7010AD8B4E2D7030A35
:104AE800D8B4EAD700D0AFEC1CF0120021D00001F6
:104AF800AE51D8A404D0170E0001AE6F25D0000126
:104B0800AE0722D00001AF51D8A404D03B0E00015B
:104B1800AF6F1AD00001AF0717D00001B051D8A469
:104B280004D03B0E0001B06F0FD00001B0070CD0CD
:104B38000001A451000AD8B4DAD7010AD8B4E2D7E0
:104B4800030AD8B4EAD700D0AFEC1CF012008E0EDE
:104B5800216E07D0D8901C321B321A321932212A02
:104B680000D0000E19141D6E000E1A141E6E000ED1
:104B78001B141F6EFF0E1C14206E1D501E101F10DC
:104B88002010D8A4E7D719C011F01AC012F01BC022
:104B980013F021C014F0000E156E50EC1FF011C078
:104BA80019F012C01AF013C01BF000D01200496EA1
:104BB80049C017F0186A000E1A6E0A0E196EB6EC84
:104BC80021F017C045F018C046F0453A463AF00EB5
:104BD800461645500F0B4612F00E451649C03DF0DB
:104BE8003E6A000E406E0A0E3F6E1EEC23F03D50EA
:104BF8004524476E3E504620486E47C043F048C0A3
:104C080044F000D01200176E2A0E9DEC2AF0000E18
:104C180095EC2AF017500001A92595EC2AF0000E12
:104C280095EC2AF015500001A92595EC2AF02B0ED9
:104C38009DEC2AF0000E95EC2AF014500001AD25E9
:104C480095EC2AF0000E95EC2AF016500001AD25DF
:104C580095EC2AF02C0E9DEC2AF01200680E1F6EBF
:104C68000E0E1B6E0F0E1C6E1BC014F01F501BEC9B
:104C780028F01D6E1D5001091D6E1BC013F01DC0CC
:104C880014F01F5023EC29F01CC014F01F501BEC2B
:104C980028F01E6E1E50FE0B1E6E1CC013F01EC0A8
:104CA80014F01F5023EC29F013EC20F01200680ECA
:104CB8001F6E0E0E1B6E0F0E1C6E1BC014F01F50C5
:104CC8001BEC28F01D6E1D50FE0B1D6E1BC013F053
:104CD8001DC014F01F5023EC29F01CC014F01F5005
:104CE8001BEC28F01E6E1E50FE0B1E6E1CC013F02F
:104CF8001EC014F01F5023EC29F013EC20F0120012
:104D080017C011F018C012F0000E146E7D0E136E4D
:104D180090EC28F011C01BF012C01CF01BC019F059
:104D28001CC01AF0191E1A1E194A1A2AFF0E192435
:104D38001B6EFF0E1A201C6E030ED56E1BC0D6FF0D
:104D48001C50D76EF294D58E00D0F2A4FED7D59E13
:104D58001200680E156E070E146E6BEC2AF01550D3
:104D68001524C0EC27F01450C0EC27F00BEC2AF007
:104D7800D8801534C0EC27F0010E1DEC27F0676EC3
:104D8800010E1DEC27F0666E010E1DEC27F0656E16
:104D9800000E1DEC27F0646E62EC2AF012001F5022
:104DA8002010D8A403D08450F80B1BD020BE06D006
:104DB800F40E1F5C010E2058D8B004D08450F80BB4
:104DC80001090FD01FC017F020C018F0010E1A6E8D
:104DD800F40E196EB6EC21F01728216E8450F80BEA
:104DE8002110846E00D012002B6E2BC02CF02D6A7F
:104DF8000ED023C018F025C019F026C01AF027C01D
:104E08001BF02C50DAEC22F02C4A2D2A00D024502A
:104E18002BC028F0296A2826000E292228502C5C4D
:104E28002D50800A2A6E2950800A2A58D8A0E1D726
:104E38001200116EFEEC2AF0000E126E070E1264BC
:104E480001D00FD0D2EC2AF081AA03D0D880133633
:104E580004D013501324136E00D0FAEC2AF0122A4F
:104E6800EDD71150D8B403D074EC2AF003D0DDECA0
:104E78002AF000D0135000D012005C505D105E1074
:104E8800D8B407D0000E5C1A000E5D1A800E5E1AA8
:104E980000D059C04DF05AC04EF05BC04FF05CC016
:104EA80050F05DC051F05EC052F0CBEC10F04DC038
:104EB80059F04EC05AF04FC05BF000D01200B2CF8C
:104EC80017F0186A000E1A6E020E196EB6EC21F071
:104ED80017C021F018C022F0000EB26E21C011F0E8
:104EE80022C012F0000E146E3C0E136E90EC28F0E7
:104EF80011C01FF012C020F000D012002A0E9DEC45
:104F08002AF0000E95EC2AF0000E95EC2AF0000E1F
:104F180095EC2AF07F0E95EC2AF02B0E9DEC2AF0EA
:104F2800000E95EC2AF0000E95EC2AF0000E95EC98
:104F38002AF09F0E95EC2AF0120011C015F012C04D
:104F480016F003D0154A162A00D015C0D9FF16C08E
:104F5800DAFFDF50D8A4F6D711C013F012C014F04E
:104F6800131E141E134A142A15501324116E1650BA
:104F78001420126E00D01200116E000E126E070E71
:104F8800126401D011D011AE03D0FEEC2AF003D088
:104F9800E2EC2AF000D0D2EC2AF0FAEC2AF0115018
:104FA8001124116E122AEBD7FEEC2AF0D2EC2AF06B
:104FB800FAEC2AF01200000E1C6E1AAE07D0196C1B
:104FC8001A1ED8B01A2A010E1C6E00D019C011F092
:104FD8001AC012F0136A8E0E146E1CC015F050EC35
:104FE8001FF011C019F012C01AF013C01BF000D046
:104FF8001200480E186EAA0E166E6BEC2AF01850A6
:105008001824C0EC27F01650C0EC27F00BEC2AF05F
:10501800D8801834C0EC27F0000E1DEC27F0176E6E
:1050280062EC2AF017C014F0156A00D01200166E50
:105038006BEC2AF016501624C0EC27F01450C0EC84
:1050480027F00BEC2AF0D8801634C0EC27F0000EBD
:105058001DEC27F0156E62EC2AF0155000D01200F6
:1050680011C015F012C016F005D0154A162A134AB9
:10507800142A00D013C0F6FF14C0F7FF15C0D9FFDB
:1050880016C0DAFF0800F5CFDFFFDF50D8A4EDD750
:1050980012001B6E800E1B6013D09F0E186401D087
:1050A8000FD018C014F01B28156E1828166E1B5048
:1050B80007EC26F01A5095EC2AF0195095EC2AF0D6
:1050C8001200838A8398800EC76E300EC66E22EC5B
:1050D80018F082EC27F036EC1CF0360E9DEC2AF026
:1050E800C00E95EC2AF0010E0001A76F1200156E94
:1050F80015C011F00F0E111615C012F0123A0F0E4E
:10510800121612500A0D1150F324136E000EF420DB
:10511800146E135000D0120011501302F3CF15F083
:10512800F4CF16F011501402F35016261250130241
:10513800F350162615C011F016C012F000D0120058
:10514800C28200D0C2B2FED7C450146E136AC350D4
:105158001324156E000E1420166E15C011F016C01B
:1051680012F000D012001C6E1C50116E126A136AE5
:105178008E0E146E000E156E50EC1FF011C019F053
:1051880012C01AF013C01BF000D0120000019B518E
:10519800D8A406D0CCEC2AF0000E0001AB6F03D0E7
:1051A800C6EC2AF000D00001AB516FEC20F01200E1
:1051B800115012101310D8B406D0000E111A000E98
:1051C800121A800E131A11C011F012C012F013C077
:1051D80013F01200000ECF6E000ECE6E9E909D80D2
:1051E800F19CF19AF198F292F090F092F288F086A0
:1051F800F088F28CF28E12004BFF013037354600F2
:1052080030303030004F464600303030004F464690
:10521800002B3235002B373700300000136E000E9C
:10522800126E3A0E136006D02F0E136403D0010ECF
:10523800126E00D012C011F0113000D01200156E9D
:105248006BEC2AF015501524C0EC27F01350C0EC75
:1052580027F01450C0EC27F062EC2AF0120000018D
:10526800A651D8A404D0050E0001A66F03D00001F2
:10527800A60700D00001A6518AEC12F01200000126
:10528800A62B060E0001A619D8A404D0000E000112
:10529800A66F00D00001A651ADEC11F0120000017C
:1052A800A451D8A404D0020E0001A46F03D00001B9
:1052B800A40700D00001A4518AEC12F012000001EA
:1052C800A42B030E0001A419D8A404D0000E0001D9
:1052D800A46F00D00001A451ADEC11F01200000E33
:1052E800126E000E116E112805E11228D8B406D0EE
:1052F80001D004D0114A122AF6D7FCD71200156E35
:105308006BEC2AF015501524C0EC27F01350C0ECB4
:1053180027F01450C0EC27F062EC2AF01200480E77
:10532800166EAC0E136E020E146E165083EC29F036
:10533800EE0E136E1650F2EC29F01200010E000169
:105348009B1B00019B05D8A403D0C6EC2AF003D010
:10535800CCEC2AF000D01200000E186E800E196EE8
:10536800A00E1A6E24C01BF025C01CF0000E79ECAC
:105378001EF012000001B12B7D0E0001B16504D0B2
:105388007D0E0001B16F00D020EC21F01200000169
:10539800B107320E0001B16104D0320E0001B16FC5
:1053A80000D020EC21F0120050EC2AF073EC29F028
:1053B800F6EC2AF073EC29F00001AB516FEC20F009
:1053C800120059EC2AF073EC29F0F6EC2AF073EC91
:1053D80029F00001AB516FEC20F01200146E6BEC59
:1053E8002AF014501424C0EC27F01350C0EC27F016
:1053F80062EC2AF012009DEC23F0ADEC26F080EC74
:1054080024F032EC0BF0000E00019E6F1200FAEC53
:105418002AF0FEEC2AF0D2EC2AF0E2EC2AF0FAECC0
:105428002AF01200B1C0B6F080EC24F032EC0BF098
:10543800000E00019F6F12006BEC21F080EC24F04D
:1054480032EC0BF0000E0001A06F1200126E9E9657
:10545800C9CF11F012C0C9FF00D0C7A0FED71200F3
:10546800000E126E190E116E3C0E13EC24F0700E25
:10547800D36E1200F90ECB6E050ECA6E4A0EBB6EC5
:105488003C0EBA6E1200839C000E186E640E176EE6
:1054980084EC26F0838C1200F90ECB6E050ECA6ED2
:1054A8007C0EBB6E3C0EBA6E1200F90ECB6E070E68
:1054B800CA6E7C0EBB6E3C0EBA6E1200FAEC2AF075
:1054C800E2EC2AF0D2EC2AF0FEEC2AF01200FEEC14
:1054D8002AF0D2EC2AF0E2EC2AF0FAEC2AF01200D8
:1054E800E2EC2AF0D2EC2AF0FAEC2AF0FEEC2AF0F0
:1054F800120080EC24F032EC0BF0000E00019F6FDC
:10550800120080EC24F032EC0BF0000E0001A06FCA
:10551800120080EC24F032EC0BF0000E00019E6FBC
:105528001200136E839A838813502AEC2AF0838A18
:105538001200136E839A839813502AEC2AF0838AF8
:105548001200116E00D0ACA2FED711C0ADFF120040
:10555800000EC26E0E0EC16EA90EC06E1200000EB5
:105568000001A26FF19CCD909E901200116E8350A5
:10557800F80B1110836E1200116E1150040DF328F0
:10558800C26E1200010E00019B6F8386838E12008B
:10559800000E00019B6F8396839E12009388060E6F
:1055A800E82EFED700D01200D2EC2AF0FEEC2AF04A
:1055B8001200D2EC2AF0FAEC2AF01200819A939A9F
:1055C80000D000D01200F092010E00019D6F120071
:1055D800F090010E00019C6F1200000E0001A26FF6
:1055E800CD901200000EBA6E8292120081989398A4
:1055F80000D01200938A00D000D01200A2EC29F04B
:0256080012008E
:10FC320000000000000000005F0000000700070055
:10FC4200147F147F14242A7F2A1223130864623635
:10FC5200495620500008070300001C2241000041C1
:10FC6200221C002A1C7F1C2A08083E0808008070FB
:10FC7200300008080808080000606000201008042E
:10FC8200023E5149453E00427F4000724949494681
:10FC92002141494D331814127F1027454545393CFF
:10FCA2004A494931412111090736494949364649EC
:10FCB20049291E000014000000403400000008140E
:10FCC2002241141414141400412214080201590987
:10FCD200063E415D594E7C1211127C7F49494936DC
:10FCE2003E414141227F4141413E7F494949417F55
:10FCF200090909013E414151737F0808087F00410B
:10FD02007F41002040413F017F081422417F404053
:10FD120040407F021C027F7F0408107F3E41414128
:10FD22003E7F090909063E4151215E7F0919294694
:10FD3200264949493203017F01033F4040403F1FAA
:10FD42002040201F3F4038403F63140814630304DF
:10FD52007804036159494D43007F4141410204083F
:10FD62001020004141417F04020102044040404012
:10FD720040000307080020545478407F2844443848
:10FD82003844444428384444287F38545454180092
:10FD9200087E090218A4A49C787F08040478004411
:10FDA2007D40002040403D007F1028440000417FFC
:10FDB20040007C047804787C080404783844444485
:10FDC20038FC1824241818242418FC7C080404087D
:10FDD200485454542404043F44243C4040207C1C96
:10FDE2002040201C3C4030403C44281028444C9089
:10FDF20090907C4464544C440008364100000077E3
:10FE02000000004136080002010204020100000065
:10FE12000A00000064000000E80300001027000050
:10FE2200A086010040420F008096980000E1F5058F
:10FE320000CA9A3B00803FCDCC3DD7233C12833A87
:10FE4200B7D138C62737388635C0D633CC2B327077
:10FE52008930E7DB2EE53C1E42A20D00803F0020E8
:10FE62004100C842007A44401C4650C347247449AA
:10FE720097184BBCBE4C6B6E4E03155079AD60F3B8
:10FE82004971010000001000000000010000001094
:10FE9200000000000100000010000000000100004E
:10FEA2000010253032783A253032783A25303278CF
:10FEB20020253032782F253032782F2530327800C5
:10FEC20043616E6E6F742066696E6420627574742D
:10FED2006F6E200D0A00616C61726D203D202564F9
:10FEE200206D61746368203D202564002054656D97
:10FEF20070203D2025642043203D2025642046209B
:10FF02000052504D203D20256420206463203D2076
:10FF12002564200030313233343536373839616266
:10FF22006364656600454345333330314C204632C5
:10FF32003320533400004E45435F436F6465203DD8
:10FF42002025780D0A005365742048656174657236
:10FF52002054656D7000454345333330314C2046A3
:10FF620032332053340054656D706572617475725A
:10FF7200653A00485452205365742054656D7000F0
:10FF8200566F6C74203D202566200D0A0054696D61
:10FF920065205365747570000025783A25783A25F6
:10FFA200780D0A00416C726D2053657475700041C2
:10FFB2006C61726D2054696D650020204865617422
:10FFC20065720000202053657475700000416C61F9
:10FFD200726D2053570048545220535700446174A5
:10FFE2006500566F6C74004F4E20004F464600521B
:0EFFF200504D00432F00444300524D000000CC
:020000040020DA
:08000000FFFFFFFFFFFFFFFF00
:020000040030CA
:0E000000FF08191EFF8381FF0FC00FE00F40A5
:00000001FF
